:020000040800F2
:10000000B0410020B51B0008891B00088B1B0008AD
:100010008D1B00088F1B0008911B000800000000CA
:10002000000000000000000000000000410B00087C
:10003000931B000800000000E90A0008951B000857
:10004000D91B0008DD1B0008E11B0008E51B0008A8
:10005000E91B0008ED1B0008F11B0008F51B000858
:10006000F91B0008FD1B0008011C0008051C000806
:10007000091C00080D1C0008111C0008151C0008B4
:10008000191C00081D1C0008211C000800000000AD
:10009000000000000000000000000000251C000817
:1000A000291C00082D1C0008311C0008351C000804
:1000B000391C00083D1C0008411C0008451C0008B4
:1000C000491C00084D1C0008511C0008551C000864
:1000D000591C00085D1C0008611C0008000000009D
:1000E000651C0008691C00086D1C00080000000069
:1000F000000000000000000000000000711C00086B
:1001000000000000751C0008791C00087D1C000818
:1001100000000000000000000000000000000000DF
:10012000811C0008851C0008891C00088D1C000823
:10013000911C00080000000000000000000000000A
:10014000000000000000000000000000951C0008F6
:10015000991C00089D1C0008A11C0008A51C000893
:10016000A91C0008AD1C00080000000000000000F1
:10017000000000000000000000000000000000007F
:1001800000000000B11C000800000000000000009A
:10019000B51C00082DE9F8430646174684B088468A
:1001A0009946B80000F084FA05001AD0542000F0F7
:1001B0007FFA040012D00D990C9825630022039257
:1001C0000191009002944B463A464146304600F079
:1001D0000DF8204600F046F8012004E0284600F023
:1001E000F0FA4FF0FF3005B0BDE8F0832DE9F0479D
:1001F0000A9E8146306B00EB8202101FC0084FEA56
:10020000C00A00228C5CB01880F83440885C10B1C1
:10021000521C102AF6D3089D002086F84300062DB4
:10022000099C88BF062506F14407F5623D607860A9
:100230009846301D00F023FB06F1180000F01FFB6C
:100240003661C5F10705B56176620020B860387384
:1002500042464946504600F06BFB306004B12660D0
:10026000BDE8F0872DE9F04100F062F8DFF8A05317
:10027000DFF8BC83E86C401CE8641426A86A28BB3D
:10028000AC62E86C012829D1002706FB07F0404446
:1002900000F0E8FA7F1C072FF7D305F1740000F097
:1002A000E1FA05F18807384600F0DCFA284600F04C
:1002B000D9FA05F1140000F0D5FA05F1380000F084
:1002C000D1FA05F17400E8622F6307E0A86D28B940
:1002D000E06AA96ACA6A904228BFAC62A86E401C54
:1002E000A86600F087F94643211D08EB060000F0E0
:1002F000C9FA00F0AAFBA86D08B100F08BF9BDE8BF
:10030000F08180B588B1DFF80823116F21B100F0CA
:1003100012F800F022F9FEE7116F491C1167002165
:1003200000F088F900F03BF808B900F011F901BDC0
:10033000044600F071BB502080F3118870473EB531
:10034000DFF854430FF2603104F19C000190002566
:100350000095002380220FF20D20FFF71BFF502194
:1003600001280ED181F3118800F0F7F84FF0FF302B
:10037000E0660121A1652565BDE8374000F0FABAC5
:1003800037BD10F1010FFBD181F3118800F0E5F8C2
:10039000FEE7DFF80403016F491C0167704770B581
:1003A000DFF86C62306F0024002528B9502181F3FA
:1003B000118800F0D2F8FEE700F02EFB306F401EEF
:1003C0003067306F002836D1F06CD8B933E0F06870
:1003D000C46800F031F800F00AF9E06A716DDFF8E6
:1003E000B432012282401143716514225043211D11
:1003F000184400F047FAE06AB16ACA6A904224BF22
:100400000121316630680028E1D10CB100F0D5F847
:10041000F46D3CB100F014F808B101203066641EA0
:10042000F8D1F565306E30B1DFF870124FF08050C2
:10043000012500F091F8E4E004F1180000F048BA5A
:100440002DE9F843DFF8C871386F002600284FD136
:100450003C6D641C3C6511D1F86A006828B15021DC
:1004600081F3118800F079F8FEE7F86A396BF962D8
:100470003863786E401C786600F09FF8F86EDFF8FD
:10048000149284424FF0140825D31AE0281D00F07E
:100490001FFAA86A18B105F1180000F019FAE86A05
:1004A000796D012282401143796508FB00F0291D16
:1004B000484400F0E7F9E86AB96ACA6A904228BF7E
:1004C0000126F86A006880B1F86AC168CD6868687A
:1004D0008442DBD2F866B86AC06A08FB00F059F8BB
:1004E0000010022907D3012605E04FF0FF30F1E7A5
:1004F000F86D401CF865386E00B1012685E0DFF824
:100500001021106F10B1012111667047106614217F
:10051000506DB0FA80F3C3F11F034B43DFF8741141
:10052000C85838B9502181F31188BFF34F8FBFF3FA
:100530006F8FFEE7C81800F1080341684968416001
:10054000994204BF496841604068C1689162704740
:10055000DFF848114FF080500860BFF34F8FBFF3B2
:100560006F8F704770B5DFF8C840DFF82C5111E08D
:1005700000F052FA286AC668301D00F0A9F9E86C4C
:10058000401EE864686B401E686300F05EFA304607
:1005900000F009F8686B0028EAD121680229F9D334
:1005A000FFF7D6FFF6E710B50446206B00F009F917
:1005B0002046BDE8104000F004B9DFF85410C86AC6
:1005C000006810B94FF0FF3203E0C86AC268D06813
:1005D0004268CA667047DFF8C010886D08B901200C
:1005E0007047086F08B90220704700207047201D2F
:1005F00000F06EB90122E06A696D824011436965BD
:10060000704700F022FA284670BD3046BDE8F283FC
:10061000343C0020A86AC16AE06A814207D21F4ABE
:100620004FF080511160BFF34F8FBFF36F8F704752
:10063000D43C0020F8B5184D2F6D0C46A96A06462B
:10064000081D00F045F930B9A86A696DC06A012239
:1006500082409143696516F1010F05D124B1A86A62
:10066000011D05F138001BE0A86AF6194660BE427C
:10067000A86A05D2011D286BBDE8F44000F00FB94F
:10068000011DE86A00F00BF9E86E864238BFEE669D
:10069000F1BD0000D43C0020343C002004ED00E01B
:1006A000BDE8F44000F0EEB849444C4500000000BD
:1006B0002DE9F8430446FFF76CFE694FB8684FF028
:1006C0000009002508BB07F1180307F1180113F012
:1006D000070F4FF470500A4605D0CA1DD208D20049
:1006E000C2F57050081880180838C008C0003A6079
:1006F0007D60B86045600560831A53601060506883
:100700003861F8604FF0004078614FF05008786928
:10071000044233D194B3083414F0070F1FBF04F11F
:10072000080004F00704041B14F0070F02D000F0C7
:1007300041F8FEE714B3F868A0421FD33E6839467B
:100740007068A04223D2306800281CBF314606469C
:10075000F6D11CE0301D02517460084600F05BF8D1
:100760007168F8683A69401AF860904238BF386199
:10077000786901437160356009F00705FFF70FFEE6
:1007800015B100F017F8FEE74846BDE8F283B868F7
:100790008642F3D00A683068086002F1080972687E
:1007A000121B112ADCD3311911F00700D2D000F04E
:1007B00001F8FEE788F31188BFF34F8FBFF36F8F07
:1007C0007047002800D1704738B5A0F10804244DC7
:1007D00061686A695023114202D100F015F8FEE702
:1007E000206810B100F010F8FEE791436160FFF758
:1007F000D0FDE96860684118E960204600F00BF818
:10080000BDE83140FFF7CBBD83F31188BFF34F8FB5
:10081000BFF36F8F704730B511490A4600E01A46A2
:1008200013688342FBD35368D418844203D14068D1
:10083000C3185360104643681468C518A54208D110
:1008400089688C4204D06168CB184360246800E05A
:100850000C460460824218BF106030BD00000000EA
:100860001C0000204FF0FF3200F10801826041605F
:10087000C16000F10802026100210160704700219F
:100880000161704710B542684A6093688B60946854
:100890006160916008610168491C016010BD30B55C
:1008A0000A6812F1010F08BF036907D000F10803BD
:1008B00000E023465C682568AA42FAD25A684A607A
:1008C00091608B60596008610168491C016030BD0E
:1008D0004368016982689A60836842685A604A681E
:1008E000824204BF83684B60002202610868401E98
:1008F00008600868704730B4002513E050F8042BF6
:10090000D30744BFA9F101039A18091F042942F82B
:10091000045BFAD213468C0744BF15809B1CC907A1
:1009200048BF1D7050F8041B0029E7D130BC704748
:10093000490810B54900A0F120034FF08074996177
:100940001A60DC616FF002020FF20D01596140F88C
:10095000242D203810BD00004E494A68502012F165
:10096000010F80F31188BFF34F8FBFF36F8F00D05B
:10097000FEE7FEE77CB5484A484B10685021984294
:1009800002D100F095F8FEE71068454B984202D17D
:1009900000F08EF8FEE7434B1C780194FF251D7094
:1009A00007251E783B4C8DF800609DF80000A5607F
:1009B00000F05000207006E0401EA0609DF800008E
:1009C00040008DF80000A0689DF800502E06F3D47A
:1009D000C0F10705042D02D000F06AF8FEE700021E
:1009E00000F4E060A06001981870116A41F4700191
:1009F0001162106A40F07040106200F061F800204F
:100A0000606000F0BBF82848016841F04041016097
:100A100000F0A4F8002076BD502080F31188BFF3C9
:100A20004F8FBFF36F8F1B494A68521C012A4A60DF
:100A30000AD11E490A68130606D080F31188BFF355
:100A40004F8FBFF36F8FFEE770471249486838B980
:100A5000502080F31188BFF34F8FBFF36F8FFEE7F5
:100A6000401E486008BF80F31188704780B5502051
:100A700080F31188BFF34F8FBFF36F8FFFF7E0FC58
:100A800018B10A494FF080500860002282F31188A3
:100A900001BD00000000002000ED00E071C20F4128
:100AA00070C20F4100E400E034EF00E004ED00E02C
:100AB00081F31188BFF34F8FBFF36F8F7047000032
:100AC0000748084B0021016081604FF47A72196871
:100AD000B1FBF2F2521E426007210160704700BF75
:100AE00010E000E018000020EFF30980BFF36F8FE3
:100AF000264B1A681EF0100F08BF20ED108A20E95F
:100B0000F04F106009B44FF0500080F31188BFF32C
:100B10004F8FBFF36F8FFFF7F2FC4FF0000080F3B1
:100B2000118809BC19680868B0E8F04F1EF0100F72
:100B300008BFB0EC108A80F30988BFF36F8F70474D
:100B4000124B19680868B0E8F04F80F30988BFF3CA
:100B50006F8F4FF0000080F3118870470C480068D9
:100B6000006880F308884FF0000080F3148862B6B4
:100B700061B6BFF34F8FBFF36F8F00DFDFF8140054
:100B8000016841F470010160704700005C3C002086
:100B900008ED00E088ED00E02DE9F843040017D0EF
:100BA0002078B74EC10745D5B06800F00C00042886
:100BB00007D0B06800F00C0008280BD17068410223
:100BC00008D53068810335D56068002840F0BA80C8
:100BD000012053E16068B0F5803F04D1306840F4F3
:100BE0008030306011E0B0F5A02F306806D140F4BD
:100BF00080203060316841F4803105E020F480309D
:100C00003060316821F480213160606868B100F0A3
:100C10003FF905463068810300F1948000F038F90F
:100C2000401B6528F6D3032028E100F031F9054682
:100C30003068810340F1868000F02AF9401B652866
:100C4000F6D3F0E700F024F9401B022840F2A78019
:100C5000E9E7E06870B10121396000F019F9054653
:100C60003068810700F1CB8000F012F9401B0228A8
:100C7000F6D9D8E7386000F00BF9054631688807E7
:100C800063D500F005F9401B0228F7D9CBE70860CF
:100C900000F0FEF80546706F810775D500F0F8F892
:100CA000401B0228F7D9BEE70528306F06D140F077
:100CB00004003067306F40F0010005E0400840005C
:100CC0003067306F20F00400306741F28938A06847
:100CD00068B100F0DDF88146306F810700F19C803B
:100CE00000F0D6F8A0EB09004045F5D39BE700F0F3
:100CF000CFF88146306F810740F18E8000F0C8F850
:100D0000A0EB09004045F5D38DE700F0C1F8401B8A
:100D1000022840F2968086E700F0BAF8001B02280D
:100D200040F2A7807FE70020386600F0B1F8044663
:100D30003068810140F1A18000F0AAF8001B022870
:100D4000F6D970E720784F4F81071BD5B06810F0B7
:100D50000C0F09D0B06800F00C0008287FF479AFC0
:100D6000706841023FF575AF3068810703D5E068D0
:100D700001287FF42DAF3168206921F0F80141EAA4
:100D8000C0013160217808070DD560693E4900280F
:100D90003FF47DAF01220A6000F07AF80546706FDB
:100DA00081077FF54FAF207841073AD5306C002599
:100DB000C1000AD400950125316C41F080513164A5
:100DC000306C00F0805000900098DFF8C080D8F8B8
:100DD0000000C1051BD4D8F8000040F48070C8F8AA
:100DE000000000F055F88146D8F80000C1050ED487
:100DF00000F04EF8A0EB09000228F5D913E730689F
:100E0000216920F0F80040EAC1003060BAE7A0682C
:100E100001287FF449AF4DE71DB1306C20F08050C0
:100E20003064A06948B3B16801F00C0108293FF4AF
:100E3000CFAE02287FF477AF0020386600F028F8A4
:100E40000546306881013FF560AFE269206A616A5A
:100E50000243A06A400842EA8112401E42EA004270
:100E6000E06A42EA006272600121396600F010F81F
:100E70000446306881017FF54FAF0020BDE8F28362
:100E80000038024000004742800E47420070004098
:100E900001484068704700BF0C00002018B58FB0B3
:100EA00000F02AF900F07FF801A8142100F03EF9C3
:100EB00000200090784C7948016841F004010160FD
:100EC000026802F004020092002200990092036876
:100ED00043F080030360016801F0800100910099F4
:100EE0000092036843F001030360016801F001010F
:100EF0000091009900924FF48461036843F002036B
:100F00000360006800F0020000900098204600F0A6
:100F1000DAF94FF4005062490190029100220392E5
:100F200001A9604800F006F94FF4846101910122A3
:100F3000002103910491029201A9204600F0FAF8E1
:100F4000594C5A4820604FF4E1310C200022606176
:100F50006160A260E2602261A261E261204600F06D
:100F6000CDF90AA855A1142200F0C8FA00210AA858
:100F700000F0DBFA206414220DF1140054A100F0FB
:100F8000BDFA002105A800F0D0FA6064142268467A
:100F900054A100F0B3FA0021684600F0C6FAA0643C
:100FA00000F0BEFAFEE780B592B006A8302100F04E
:100FB000BDF801A8142100F0B9F8002000903C48C9
:100FC000016841F0805101600021006800F080500C
:100FD00000900098374800910221026822F44042B4
:100FE00042F4004202600122006800F44040009098
:100FF00000980691099210210A91022200210C9278
:101000000D9110224FF4A8710E920F910422072126
:101010001092119106A8FFF7BFFD022102910F2047
:101020004FF4805101900022049103920592022115
:1010300001A800F0A3FA13B000BDFEE710B51E4CE6
:101040004FF40051174800F038F920B92068411ECC
:101050008941C90F21607B2000F07EFAF0E738B5A6
:101060000D4C154D2868012806D00022202120466D
:1010700000F029F9002204E02021204600F027F9A1
:1010800001224FF48061204600F01DF94FF4FA7000
:1010900000F062FAE6E7000000000240303802404B
:1010A0000000211000080240603D00200044004084
:1010B0004038024000700040AC3D00208C1A00080F
:1010C0003B1000080000000000000000800000004D
:1010D000981A00083D100008000000000000000001
:1010E00080000000A41A00085F1000080000000043
:1010F000000000008000000080B50B48016841F44A
:1011000000710160026842F480620260016841F48B
:1011100080710160032000F012FB0F2000F058FBEB
:1011200000F076FB002002BD003C0240002200F0EF
:10113000C7BB00002DE9F84703460C464FF00008F6
:1011400066480F210122256802FA08FC0CEA05090D
:10115000E14540F0AA806568022D18BF122D4FEAC4
:10116000880A10D14FEAD80503EB850E0AF01C0659
:10117000DEF8205001FA06F7BD43276907FA06F6A4
:101180003543CEF820504FEA480E03251E682779D4
:1011900005FA0EF5ED4307F003072E4007FA0EF7A8
:1011A0003E431E606668012E18BF022E03D0112E2A
:1011B00018BF122E10D19E68E7682E4007FA0EF76E
:1011C0003E439E605E6826EA0C076668C6F300161A
:1011D00006FA08F63E435E60DE683540A66806FA09
:1011E0000EF63543DD606568ED005ED5002500959F
:1011F0004FEA980C05683A4F45F4804505600AF0BF
:101200000C0A056805F480450095009D57F82C6090
:1012100001FA0AF526EA0505324EB34208BF002658
:1012200013D0314EB34208BF01260ED02F4EB34229
:1012300008BF022609D02E4EB34208BF032604D0B1
:101240002C4EB3420CBF0426072606FA0AF6354395
:1012500047F82C506FEA090C274F3D680CEA050E41
:101260006568EE0348BF49EA0E0EC7F800E07D68E6
:101270000CEA050E6568AE0348BF49EA0E0EC7F8D2
:1012800004E0BD680CEA050E6568EE0248BF49EA55
:101290000E0EC7F808E0FD680CEA050E6568AD02A1
:1012A00048BF49EA0E0EC7F80CE008F10108B8F192
:1012B0000F0F7FF648AFBDE8F1870069084018BFFF
:1012C0000120C0B2704702B90904816170474269C8
:1012D0000A408A4208BF09048161704744380240CD
:1012E00008380140000002400004024000080240AB
:1012F000000C024000100240003C014038B50400E0
:1013000001D1012032BD00F021F808B900F022F827
:1013100000F012F800F023F8FFE7416100F001F857
:1013200032BD2068C16841F40051C160002068608E
:1013300020216970A9707047242068702068C168F6
:1013400021F40051C160204600F013B804F13805C3
:101350006878704700212970204600F077BA20682D
:10136000016921F4904101612068416921F02A015D
:1013700070472DE9F0470446642522681169E0684A
:1013800021F44051014311611926D3684948A168ED
:10139000034020690B4361690343E0690B43034346
:1013A000D3605169A06921F4407101435161E3693F
:1013B00041484249B3F5004F3BD18A4218BF8242AF
:1013C0000ED100F068F9074600F065F9804600F09C
:1013D00062F9814600F05FF9824600F05CF90DE0A9
:1013E00000F051F9074600F04EF9804600F04BF945
:1013F000814600F048F9824600F045F961684900ED
:1014000000F06DF8AE46BCFBFEFE05FB1E77FF004C
:1014100032376423B7FBF3F35B0003F4F87300F097
:101420004FF8ED0032356420B5FBF0F000F0070016
:1014300039E08A4218BF82420ED100F02CF90746EB
:1014400000F029F9804600F026F9814600F023F9E2
:10145000824600F020F90DE000F015F9074600F093
:1014600012F9804600F00FF9814600F00CF982462F
:1014700000F009F96168890000F031F8AE46BCFB64
:10148000FEFE05FB1E773F0132376423B7FBF3F303
:1014900003F0F00300F014F82D0132356420B5FBA1
:1014A000F0F000F00F002168C3188B60BDE8F087F2
:1014B00000000000F369FFFF00140140001001402C
:1014C00003EB021306FB0AF74643B7FBF1F2B6FB48
:1014D000F1F06421B0FBF1F105FB11257047774372
:1014E000B7FBF1F36422B3FBF2F206FB08F3B3FBA4
:1014F000F1F706FB09F3B3FBF1FC70474AB10000BA
:1015000011F8013B521E00F8013B1CBF11F8013BD2
:10151000F8E7704701460020842918BFC81C7047AF
:1015200080B5FEF70CFF002002BD3EB504460D4617
:10153000B4F90800FFF7EEFF02A9019100902B46D5
:1015400022692168606892B2FEF724FE012801D06A
:1015500000203EBD02983EBD80B500B90120FEF7D7
:10156000D0FE002002BD80B5FFF735F8012803D07A
:10157000BDE80140FFF77ABA01BD00002DE9F04156
:1015800004000F4677D0494E306800F00F00B84293
:1015900002D200F072F86ED12068454D810712D555
:1015A000400703D5A96841F4E051A96020780107FC
:1015B00003D5A86840F46040A860A968A06821F03D
:1015C000F0010143A9602178C8074CD56068012863
:1015D00002D129688A0305E0022818BF032803D135
:1015E00029688A0103D446E029688A0743D5A96897
:1015F000890840EA8100A860FFF74AFC8046A86895
:10160000616800F00C00B0EB810F2CD0FFF740FCBC
:10161000A0EB080041F289318842F0D3032020E09A
:101620002078410705D5AA68E06822F4E052024319
:10163000AA602178080706D5A968206921F46041CD
:1016400041EAC001A96000F03DF8AA6819491A4BA7
:10165000C2F30312895CC84018600F2000F0B8F88C
:101660000020BDE8F081306800F00F008742D7D23B
:1016700000F003F8D4D00120F3E73770316801F0AF
:101680000F01B94270470C480C4A006813680C49B6
:10169000C3F3822206E00848084A00681368084934
:1016A000C3F34232895CC84070470000003C0240EE
:1016B00000380240501A0008180000200838024084
:1016C000D01B000830B5144C606800F00C000428F2
:1016D00002D0082802D01DE0104830BD22682068E2
:1016E0000023410202F03F0204D525680B49C5F3EF
:1016F000881003E020680A49C0F38810A1FB0001AC
:1017000000F0F8F82168C1F30141491C4900B0FB21
:10171000F1F030BD024830BD0438024000127A00BA
:101720000024F4000901020002D4244881547047C7
:10173000234B02F00F021A4402F8041C7047214B9D
:1017400019684FF6FF020002114000F4E060084300
:101750001D4908431860704738B51A4B1C68C4F31C
:101760000223C3F10704052C28BF04241D1D072DE7
:1017700034BF0023DB1E012505FA04F4641E21405A
:10178000994005FA03F35B1E1A401143BDE834404B
:10179000C8E710B5401EB0F1807F01D3012010BD15
:1017A0000A4C60600F214FF0FF30FFF7BBFF0021B4
:1017B000A16007202060002010BD000000E400E0D0
:1017C00018ED00E00CED00E00000FA0510E000E08C
:1017D00038B50D4D0D4B2A7804464FF47A711868D0
:1017E000B1FBF2F2B0FBF2F0FFF7D3FF50B9102CCF
:1017F00008D2002221464FF0FF30FFF7ADFFAC606A
:10180000002032BD012032BD0C0000201800002055
:1018100082B00020009000222548416841F48041B8
:101820004160416801F480410091009900920F21CC
:10183000036843F080530360006800F0805000901C
:1018400000986FF0010002B0FFF786BF38B586B090
:10185000044601A81421FFF769FC2468154DAC4229
:1018600023D10020009000221348016941F4003187
:101870000161016901F400310091009900920C218D
:10188000036843F0010303600222006800F00100D6
:10189000009000980948019102920021039104915F
:1018A0000721059101A9FFF745FC07B030BD0000F5
:1018B00040380240004400403038024000000240FE
:1018C00000B500BF130096469446103928BFA0E823
:1018D0000C50FAD85FEA417C28BF0CC048BF40F8E2
:1018E000042BC90728BF20F8022B48BF00F8012BA2
:1018F00000BD0000D3BBD9B1B2F5803F5BD2022A54
:101900001ED98C46B1FBF2F102FB11C31B0443EA62
:101910001043B3FBF2FC02FB1C3380B240EA0343EA
:10192000B3FBF2F002FB103240EA0C400023704798
:10193000022A05D98446B0FBF2F002FB10C27047C0
:101940004AB105D100F0010249085FEA3000704752
:1019500000220023704700F051B80B000200002164
:1019600000207047F7D3002200237047904271EBAC
:10197000030CF2D370B5B1FA81F4B3FA83F52C1BE2
:10198000A340C4F1200532FA05F63343A2405FF0CC
:101990000046E64002E05B085FEA3202841A71EB1F
:1019A000030524BF204629467641F4D302000B00EC
:1019B0003000002170BD70B5B1FA81F4B2FA82F541
:1019C000C4F120046419B4F12006DAD3B2405FF008
:1019D0000044F440002502E052085FEA3303C61ACF
:1019E00071EB020E24BF3046714664416D41F3D362
:1019F00002000B002000290070BD000070470000AD
:101A00000E48016841F47001016000220C49086829
:101A100040F0010008608A600B680A480A4A0340E7
:101A20000B604A6000200B68084A23F480230B6097
:101A3000C8604FF0006111607047000088ED00E061
:101A400000380240FFFFF6FE1030002408ED00E0F1
:101A5000000000000000000001020304060708095E
:101A600030B450F8041B79B102684368024408306E
:101A7000DC0744BFA9F10104E31852F8045B43F802
:101A8000045B091FF9D1ECE730BC704764656661FF
:101A9000756C745461736B00736574537461746511
:101AA00000000000626C696E6B696E674E75636C56
:101AB000656F000010B5074979441831064C7C4425
:101AC000163404E00A68081D114488470146A14203
:101AD000F8D110BD2C0000004C0000004EF68851DB
:101AE000CEF20001086840F470000860BFF34F8F29
:101AF000BFF36F8F4FF00070E1EE100A70470000E7
:101B0000F7EDFFFF943D00001C00002000000000E6
:101B100051FFFFFF1C0000005400000000000020E7
:101B20000000000000F00DF8002801D0FFF7C2FF10
:101B3000AFF300800020AFF30080FFF7AFF900F0B3
:101B400002F80120704700F001B80000074638464F
:101B500000F002F8FBE7000080B5AFF30080024A16
:101B600011001820ABBEFBE72600020000000000B9
:101B7000AAAAAAAA000000000100000000000000BC
:101B8000100000000024F4007047FEE7FEE7FEE7C7
:101B9000FEE7704780B500F005F8BDE80140FFF7AB
:101BA000E2BC00000248416802788A18426070472F
:101BB0000C0000200148804701480047011A000836
:101BC000C51B0008AFF30080FFF788FFFFF7AAFFEF
:101BD0000000000001020304FFF7FEBFFFF7FEBF95
:101BE000FFF7FEBFFFF7FEBFFFF7FEBFFFF7FEBF29
:101BF000FFF7FEBFFFF7FEBFFFF7FEBFFFF7FEBF19
:101C0000FFF7FEBFFFF7FEBFFFF7FEBFFFF7FEBF08
:101C1000FFF7FEBFFFF7FEBFFFF7FEBFFFF7FEBFF8
:101C2000FFF7FEBFFFF7FEBFFFF7FEBFFFF7FEBFE8
:101C3000FFF7FEBFFFF7FEBFFFF7FEBFFFF7FEBFD8
:101C4000FFF7FEBFFFF7FEBFFFF7FEBFFFF7FEBFC8
:101C5000FFF7FEBFFFF7FEBFFFF7FEBFFFF7FEBFB8
:101C6000FFF7FEBFFFF7FEBFFFF7FEBFFFF7FEBFA8
:101C7000FFF7FEBFFFF7FEBFFFF7FEBFFFF7FEBF98
:101C8000FFF7FEBFFFF7FEBFFFF7FEBFFFF7FEBF88
:101C9000FFF7FEBFFFF7FEBFFFF7FEBFFFF7FEBF78
:101CA000FFF7FEBFFFF7FEBFFFF7FEBFFFF7FEBF68
:081CB000FFF7FEBFFFF7FEBFC6
:0400000508001BC50F
:00000001FF
