:020000040800F2
:10000000C0150020D51E0008A91E0008AB1E000860
:10001000AD1E0008AF1E0008B11E00080000000061
:10002000000000000000000000000000E90A0008D5
:10003000B31E000800000000910A0008B51E000869
:10004000F11E0008F51E0008F91E0008FD1E00083C
:10005000011F0008051F0008091F00080D1F0008E8
:10006000111F0008151F0008191F00081D1F000898
:10007000211F0008251F0008291F00082D1F000848
:10008000311F0008351F0008391F00083D1F0008F8
:10009000411F0008451F0008491F00084D1F0008A8
:1000A000511F0008551F0008591F00085D1F000858
:1000B000611F0008651F0008691F00086D1F000808
:1000C000711F0008751F0008791F00087D1F0008B8
:1000D000811F0008851F0008891F00088D1F000868
:1000E000911F0008951F0008991F00089D1F000818
:1000F000A11F0008A51F0008A91F0008AD1F0008C8
:10010000000000000000000000000000B11F000817
:10011000B51F0008B91F0008BD1F0008C11F000857
:10012000C51F0008C91F0008CD1F0008D11F000807
:10013000D51F0008D91F00080000000000000000C3
:10014000DD1F0008E11F0008E51F00080000000097
:10015000000000000000000000000000000000009F
:100160000000000000000000E91F0008ED1F00086B
:10017000F11F000800000000000000000000000067
:1001800000000000F51F00082DE9F8430646174659
:1001900084B088469946B80000F090FA05001AD05D
:1001A000542000F08BFA040012D00D990C982563AE
:1001B000002203920191009002944B463A46414638
:1001C000304600F00DF8204600F046F8012004E02B
:1001D000284600F0FCFA4FF0FF3005B0BDE8F08390
:1001E0002DE9F0470A9E8146306B00EB8202101F1A
:1001F000C0084FEAC00A00228C5CB01880F8344076
:10020000885C10B1521C102AF6D3089D002086F895
:100210004300062D099C88BF062506F14407F562B8
:100220003D6078609846301D00F02FFB06F1180005
:1002300000F02BFB3661C5F10705B5617662002041
:10024000B860387342464946504600F059FB30606A
:1002500004B12660BDE8F0872DE9F04100F064F8B4
:10026000DFF8D453DFF8D483E86C401CE86414262C
:10027000A86A28BBAC62E86C012827D1002706FBDE
:1002800007F0404400F0F4FA7F1C072FF7D305F184
:10029000740000F0EDFA05F18807384600F0E8FA3E
:1002A000284600F0E5FA05F1140000F0E1FA05F146
:1002B000380000F0DDFA05F17400E8622F6305E014
:1002C000A86D18B900F037F828BFAC62A86E401CC2
:1002D000A8660122E06A696D824011436965464360
:1002E000211D08EB060000F0D3FA00F08CFBA86D8E
:1002F00008B100F092F9BDE8F08180B588B1DFF86F
:10030000A823116F21B100F012F800F027F9FEE7E1
:10031000116F491C1167002100F092F900F040F8BC
:1003200008B900F016F901BD044600F053BB502097
:1003300080F311887047E06AA96ACA6A90427047E0
:100340003EB5DFF864430FF26C3104F19C0001907C
:1003500000250095002380220FF20D20FFF714FFE7
:10036000502101280ED181F3118800F0F7F84FF0E9
:10037000FF30E0660121A1652565BDE8374000F04A
:10038000E1BA37BD10F1010FFBD181F3118800F004
:10039000E5F8FEE7DFF81003016F491C01677047BD
:1003A00070B5DFF80463306F0024002528B95021B0
:1003B00081F3118800F0D2F8FEE700F00BFB306FFC
:1003C000401E3067306F002836D1F06CD8B933E06A
:1003D000F068C46800F031F800F015F9E06A716D5A
:1003E000DFF8C83201228240114371651422504364
:1003F000211D184400F04CFAE06AB16ACA6A9042C2
:1004000024BF0121316630680028E1D10CB100F031
:10041000E0F8F46D3CB100F014F808B1012030664A
:10042000641EF8D1F565306E30B1DFF884124FF0FC
:100430008050012500F091F8E8E004F1180000F088
:100440004DBA2DE9F843DFF86072386F00260028B6
:100450004FD13C6D641C3C6511D1F96A086828B124
:10046000502181F3118800F079F8FEE7F86A396BC2
:10047000F9623863786E401C786600F0AAF8F86E6E
:10048000DFF8289284424FF0140825D31AE0281D83
:1004900000F024FAA86A18B105F1180000F01EFA5D
:1004A000E86A796D012282401143796508FB00F00A
:1004B000291D484400F0ECF9E86AB96ACA6A90421A
:1004C00028BF0126F96A086880B1F86AC168CD685A
:1004D00068688442DBD2F866B86AC16A08FB01F03A
:1004E00059F80020022A07D3012605E04FF0FF301B
:1004F000F1E7F86D401CF865386E00B1012689E01F
:10050000DFF83421106F10B10121116670471066B9
:100510001421506DB0FA80F3C3F11F034B43DFF891
:100520008C11C85838B9502181F31188BFF34F8F0F
:10053000BFF36F8FFEE7C81800F1080341684968F0
:100540004160994204BF496841604068C168916256
:100550007047DFF85C114FF080500860BFF34F8F99
:10056000BFF36F8F7047000070B5DFF8D040DFF841
:1005700038511BE0286F401C28676869461EB64149
:10058000FFF70EFFF60F8EB900F024FA286AC6684E
:10059000301D00F0A3F9E86C401EE864686B401E53
:1005A000686300F030FA304600F009F8686B002804
:1005B000E0D121680129F9D9FFF7CBFFF6E710B5A3
:1005C0000446206B00F003F92046BDE8104000F01F
:1005D000FEB8DFF8D410CA6A106810B94FF0FF32C5
:1005E00003E0C86AC268D0684268CA667047DFF82C
:1005F000B810886D08B901207047086F08B902204B
:10060000704700207047201D00F068B900F0FBF92A
:10061000284670BD3046BDE8F283A86AC16AE06A28
:10062000814207D2224A4FF080511160BFF34F8FB1
:10063000BFF36F8F7047000094100020341100202A
:10064000F8B5194D2F6D0C46A96A0646081D00F035
:1006500045F930B9A86A696DC06A012282409143A8
:10066000696516F1010F08D13CB1A86A011D05F1B9
:100670003800BDE8F44000F00BB9A86AF6194660EE
:10068000BE42A86A05D2011D286BBDE8F44000F007
:100690000CB9011DE86A00F008F9E86E864238BF1F
:1006A000EE66F1BD0000000094100020341100201F
:1006B00004ED00E049444C45000000002DE9F843FA
:1006C0000446FFF767FE694FB8684FF00009002540
:1006D00008BB07F1180307F1180113F0070F4FF4D7
:1006E00040600A4605D0CA1DD208D200C2F540605B
:1006F000081880180838C008C0003A607D60B860EB
:1007000045600560831A5360106050683861F86076
:100710004FF0004078614FF050087869044233D1BF
:1007200094B3083414F0070F1FBF04F1080004F05D
:100730000704041B14F0070F02D000F041F8FEE795
:1007400014B3F868A0421FD33E6839467068A042CF
:1007500023D2306800281CBF31460646F6D11CE083
:10076000301D02517460084600F05BF87168F8684B
:100770003A69401AF860904238BF3861786901439D
:100780007160356009F00705FFF70AFE15B100F04A
:1007900017F8FEE74846BDE8F283B8688642F3D012
:1007A0000A683068086002F108097268121B112A91
:1007B000DCD3311911F00700D2D000F001F8FEE7C8
:1007C00088F31188BFF34F8FBFF36F8F70470028F6
:1007D00000D1704738B5A0F10804244D61686A69FA
:1007E0005023114202D100F015F8FEE7206810B145
:1007F00000F010F8FEE791436160FFF7CBFDE96878
:1008000060684118E960204600F00BF8BDE831400F
:10081000FFF7C6BD83F31188BFF34F8FBFF36F8F10
:10082000704730B511490A4600E01A461368834202
:10083000FBD35368D418844203D14068C318536073
:10084000104643681468C518A54208D189688C42CF
:1008500004D06168CB184360246800E00C46046053
:10086000824218BF106030BD000000001C00002054
:100870004FF0FF3200F1080182604160C16000F179
:100880000802026100210160704700210161704788
:1008900010B542684A6093688B60946861609160AB
:1008A00008610168491C016010BD30B50A6812F189
:1008B000010F08BF036907D000F1080300E02346D9
:1008C0005C682568AA42FAD25A684A6091608B60D7
:1008D000596008610168491C016030BD43680169C5
:1008E00082689A60836842685A604A68824204BF9C
:1008F00083684B60002202610868401E08607047F0
:10090000490810B54900A0F120034FF080749961A7
:100910001A60DC616FF002020FF20D01596140F8BC
:10092000242D203810BD00004A494A68502012F199
:10093000010F80F31188BFF34F8FBFF36F8F00D08B
:10094000FEE7FEE73EB54449444B0A6850209A4210
:1009500002D100F078F8FEE70A68414B9A4202D1D2
:1009600000F071F8FEE73F4A13780193FF241470FA
:100970001578384C8DF800509DF8000000F05000BC
:100980002070072005E09DF800305B00401E8DF8C8
:1009900000309DF800301D06F5D4000200F4E06040
:1009A000A060019810700A6A42F470020A62086A34
:1009B00040F07040086200F05BF80020606000F0DA
:1009C000ADF82948016841F04041016000F09AF813
:1009D00000203EBD502080F31188BFF34F8FBFF33E
:1009E0006F8F1C494A68521C012A4A600AD11F496C
:1009F0000A68130606D080F31188BFF34F8FBFF348
:100A00006F8FFEE770471349486838B9502080F36C
:100A10001188BFF34F8FBFF36F8FFEE7401E486012
:100A200008BF80F31188704780B5502000F00BF8A4
:100A3000FFF707FD18B10D494FF080500860002204
:100A400082F3118801BD80F31188BFF34F8FBFF38C
:100A50006F8F70470000002000ED00E071C20F4171
:100A600070C20F4100E400E034EF00E004ED00E06C
:100A7000054906480A684FF47A73B2FBF3F35B1E2C
:100A800043600721016070471800002010E000E07B
:100A9000EFF30980BFF36F8F244B1A681EF0100F1D
:100AA00008BF20ED108A20E9F04F106008B44FF025
:100AB000500080F31188BFF34F8FBFF36F8FFFF7A4
:100AC0001FFD4FF0000080F3118808BC196808680A
:100AD000B0E8F04F1EF0100F08BFB0EC108A80F3A2
:100AE0000988BFF36F8F7047104B19680868B0E82A
:100AF000F04F80F30988BFF36F8F4FF0000080F351
:100B0000118870470A480068006880F3088862B658
:100B100061B6BFF34F8FBFF36F8F00DFDFF81400B4
:100B2000016841F47001016070470000BC100020B2
:100B300008ED00E088ED00E02DE9F843040018D04E
:100B40002078DFF83C54C10740F1DB80686800F092
:100B50000C00042807D0686800F00C0008280AD1AF
:100B60006868C10307D500F063F93DD060680028CC
:100B70002CD1012050E16068B0F5803F04D1286895
:100B800040F48030286014E008B928680AE0B0F525
:100B9000A02F286806D140F480202860296841F4FD
:100BA000803105E020F480302860296821F480211C
:100BB0002960E86AA168000941EA0010E8626068FB
:100BC00068B100F001FA064600F032F940F0998071
:100BD00000F0FAF9801B6528F6D303201CE100F031
:100BE000F3F9064600F024F900F08B8000F0ECF9F0
:100BF000801B6528F6D3F0E700F0E6F9C01B022859
:100C000040F2AE80E9E7206970B10121316000F067
:100C1000DBF9074600F007F940F08D8000F0D4F9C9
:100C2000C01B0228F6D9D8E7306000F0CDF907469E
:100C300000F0F9F800F0868000F0C6F9C01B022829
:100C4000F6D9CAE7086000F0BFF9074600F074F96A
:100C500000F08A8000F0B8F9C01B0228F6D9BCE782
:100C600008B9286A09E00528286A06D140F004007E
:100C70002862286A40F0010005E040084000286230
:100C8000286A20F00400286241F28938E06870B1D7
:100C900000F09AF98146286A00F04FF940F09480FC
:100CA00000F092F9A0EB09004045F4D395E700F07D
:100CB0008BF98146286A00F040F900F0858000F049
:100CC00083F9A0EB09004045F4D386E700F07CF9F6
:100CD000C01B022840F28B807FE700F075F9001BF3
:100CE000022840F2948078E700F0A7F8044600F06C
:100CF00095F800F0908000F067F9001B0228F6D903
:100D00006BE72078DFF8846281071BD5686810F0F4
:100D10000C0F09D0686800F00C0008287FF473AF4E
:100D20006868C1033FF56FAF00F07DF81CBF206914
:100D300001287FF41EAF2868616920F0F80040EABE
:100D4000C1002860207801070ED5A069DFF84012A5
:100D500000283FF477AF01220A6000F035F907461A
:100D600000F0EAF83FF448AF2078410731D5E86950
:100D70000027C10009D4E86940F08050E8610127EC
:100D8000E86900F0805000900098DFF80882D8F8F9
:100D90000000C10513D4D8F8000040F48070C8F8F2
:100DA000000000F011F98146D8F80000C10506D412
:100DB00000F00AF9A0EB09006528F5D30DE7E0681B
:100DC00001287FF44DAF54E71FB1E86920F080504F
:100DD000E861E069F8B1696801F00C0108293FF4A5
:100DE000C8AE02287FF480AF00F027F8074600F075
:100DF00015F87FF46BAF6A68606A216A22F4741296
:100E000002430A436A60012000F018F8044600F02B
:100E100005F83FF462AF0020BDE8F2832868C0F314
:100E20004060002870472868C0F3400000287047E1
:100E30002868C0F34040002870470020306600F06A
:100E4000C3B82DE9F0410400884669D0524E30689D
:100E500000F00700404502D200F064F860D120782D
:100E6000474D810705D56A68A06822F0F002024369
:100E70006A602178C8074BD56168012903D12868C9
:100E8000C0F3404004E00229286803D1C0F3406069
:100E900018B945E000F051F842D06868800841EA8E
:100EA0008001696000F090F807466868616800F0AA
:100EB0000C00B0EB810F2BD000F086F8C01B41F284
:100EC00089318842F1D3032020E02078410705D5FD
:100ED0006A68E06822F4E06202436A6021780807E9
:100EE00006D56968206921F4605141EAC001696052
:100EF00000F028F86968294AC1F30311515C214ABE
:100F0000C84010600F2000F065F80020BDE8F081B7
:100F1000306800F007008045D7D200F003F8D4D045
:100F20000120F3E73168C90848EAC101316030683F
:100F300000F0070040457047686AC0F34000002891
:100F40007047000010B516490A6802F00C00082826
:100F500014D100BF14A3C2F38340D203185C896A82
:100F600009D500BF14A4084B01F00F01625CB3FB6C
:100F7000F2F2504310BD0B49484310BD024810BD6A
:100F8000001002401800002000127A0000004242C7
:100F9000800442420070004000200240181D0008FA
:100FA0000410024000093D00020304050607080979
:100FB0000A0B0C0D0E0F10100102030405060708A2
:100FC000090A0B0C0D0E0F1001484068704700BF56
:100FD0000C00002038B50D4D0D4B2A7804464FF417
:100FE0007A711868B1FBF2F2B0FBF2F000F049F848
:100FF00050B9102C08D2002221464FF0FF3000F0EB
:1010000023F8AC60002032BD012032BD0C0000206E
:10101000180000200901020006D5244A00F00F0044
:10102000104400F8041C7047214B19547047214BA1
:1010300019684FF6FF020002114000F4E060084317
:101040001D4908431860704738B51A4B1C68C4F333
:101050000223C3F10704052C28BF04241D1D072DFE
:1010600034BF0023DB1E012505FA04F4641E214071
:10107000994005FA03F35B1E1A401143BDE8344062
:10108000C8E710B5401EB0F1807F01D3012010BD2C
:101090000A4C60600F214FF0FF30FFF7BBFF0021CB
:1010A000A16007202060002010BD000018ED00E0C6
:1010B00000E400E00CED00E00000FA0510E000E0C4
:1010C00038B58AB000F0B6F900F065F800F0A5F880
:1010D000C04CC148C1496066A16604F18405002086
:1010E000E06601216067A067E067C4F880002860BF
:1010F000216704F1640000F0AFF9002104F16400FD
:1011000000F002FA002104F1640000F012FAB44881
:1011100020604FF482714FF44070E06061600820FD
:10112000E06100220720E0624FF400710820606354
:10113000A26022616261A16122626262A262226394
:10114000204600F03DFAA748E862082102206863C3
:10115000E863296300206864E86404F1B00000F0EB
:101160008BFA05A8A9A1142200F0D2FA002105A843
:1011700004F58B6400F0E3FA206014224FEA0D00BE
:10118000A7A100F0C5FA0021684600F0D8FA606017
:1011900000F0D0FAFEE710B59EB0934C05A82146AA
:1011A000282200F0B5FA6846142100F0F1FA0FA8E1
:1011B00004F128013C2200F0ABFA03214FF4A022F5
:1011C0000591069200210122079109921021022225
:1011D0000A910C924FF480314FF480120D910E92CF
:1011E00005A8FFF7A9FC022101910F204FF48061AF
:1011F0000090002203910292049201216846FFF7B9
:1012000020FE7A480F9000214FF4800216911D9223
:101210000FA800F0C1FA1EB010BD38B586B0684600
:10122000142100F0B5FA7248046844F40014046014
:101230004FF6087501686F4C01F40011059105998E
:10124000026842F400220260036803F4002305935D
:101250000599026842F480020260036803F4800387
:1012600005930599026842F400320260036803F4B2
:10127000003305930599026842F48022026000223F
:10128000006800F48020059029460598204600F06B
:1012900034FC37205849009001910022029269469F
:1012A000204600F055FB0121019100220292039299
:1012B00000956946204600F04BFB0120002100907C
:1012C000019102914FF09040694600F041FB4020AF
:1012D00000210090019102916946484800F038FBD6
:1012E00007B030BD80B5012000F040FAFBE70000F8
:1012F00038B500243F4D01E000F085F840213F481B
:1013000000F0F5FB0128F7D1072C5ED8DFE804F0E8
:10131000040F1A25303B465101224FF4807100F032
:101320006FF800F070F800224FF480714BE001225A
:101330004FF4007100F064F800F065F800224FF4FB
:10134000007140E001224FF4806100F059F800F094
:101350005AF800224FF4806135E001224FF4006119
:1013600000F04EF800F04FF800224FF400612AE040
:1013700001224FF4805100F043F800F044F80022BD
:101380004FF480511FE001224FF4005100F038F873
:1013900000F039F800224FF4005114E001224FF41C
:1013A000804100F02DF800F02EF800224FF480412B
:1013B00009E001224FF4004100F022F800F023F888
:1013C00000224FF4004100F01BF8641C082C95DB50
:1013D000002493E7340C0020005400400E09002044
:1013E00000300140005C0040281D00082000020081
:1013F00014100240001000480000121000080048BD
:10140000284600F07ABB7B2000F0B0B9701E0008BF
:10141000E51200080000000000000000800000004D
:101420007C1E0008F112000800000000000000000F
:101430008000000080B50748016841F0100101609C
:101440000320FFF7F4FD0F20FFF7C4FD00F068FB59
:10145000002002BD0020024038B5040001D1012067
:1014600032BD04F14005687820B90021297020467A
:1014700000F071FB00F040F86068216820F07060B7
:1014800008612068816821F400418160E06821687A
:101490000128A0680CBF40F4004040F4044088607C
:1014A000E068022803D120684FF4006141602068A1
:1014B000416841F0007141F4004141602068C16819
:1014C00021F40041C16060692169A269014320687B
:1014D00041EA0221C160206AE1692268014311608A
:1014E0002068016841F0010101600020686020214E
:1014F00069702063A87032BD24206870206801687C
:10150000490849000160704730B500F14002537846
:10151000202B0CD11478012C09D000F01DF824F4F4
:1015200080541C6003681D682943196020E0022074
:1015300030BD30B500F140025378202B0AD1147829
:10154000012C07D000F008F824F4706444EA012468
:101550001C600DE0022030BD012313702424547060
:1015600003681D686D086D001D6003681C68704786
:101570000068016841F001010160202050700021E5
:101580001170002030BD30B4002513E050F8042B5A
:10159000D30744BFA9F101039A18091F042942F88F
:1015A000045BFAD213468C0744BF15809B1CC90705
:1015B00048BF1D7050F8041B0029E7D130BC7047AC
:1015C00070B5040001D1012070BD0020A06204F1BB
:1015D0005C05687820B900212970204600F0E6FA01
:1015E0000220687000F041F8E168B1F5E06F04D9BD
:1015F0000022B1F5706F03D104E04FF4805201D0A6
:101600000020A062206B30B9B1F5E06F87BF0220E7
:101610002063012121636368A06821692668034370
:1016200060690B43A169034301F40071E0690B4356
:10163000216A0343A06A0B4303433360A369606AD2
:10164000616B1B0C03F004030343E0680B4303438B
:101650001A4323685A602068C16921F40061C1619E
:10166000002068600121697070BD2068016821F068
:10167000400101607047000070B5044600260CB9B7
:10168000012070BD04F55C75687818B92E7020468D
:1016900000F0B4FA0320687000231C200BE000FB6C
:1016A00006F12144283101220E704A70CB70CB60C4
:1016B0000B614B61761C61688E42F0D300210026DD
:1016C0000BE000FB01F2224402F5E6721170537048
:1016D000D670D36016615361491C62689142F0D3A1
:1016E00021680120A1F840002068A0F8403022685D
:1016F000A2F844304FF43F422168A1F850302068EE
:10170000A0F8402084F8243001206870002070BDCB
:101710004AB1000011F8013B521E00F8013B1CBF0A
:1017200011F8013BF8E7704701460020842918BFF3
:10173000C81C704780B5FEF703FE002002BD3EB511
:1017400004460D46B4F90800FFF7EEFF02A9019127
:1017500000902B4622692168606892B2FEF714FD62
:10176000012801D000203EBD02983EBD80B500B9E1
:101770000120FEF7C2FD002002BD80B5FEF737FF55
:10178000012803D0BDE80140FFF74EB901BD0000BC
:10179000002200F071BA00002DE9FC410546DFF897
:1017A000A4612868C10354D5B0690024C10009D4DC
:1017B000B06940F08050B0610124B06900F0805001
:1017C00000900098DFF880713868C10519D4386836
:1017D00040F480703860FFF7F7FB80463868C10539
:1017E0000FD4FFF7F1FBA0EB08006528F6D3032028
:1017F000A5E0FFF7E9FBC01B41F28931884218D30D
:10180000F5E7F06910F440701EBF696801F440719B
:10181000884213D0DFF83411F06901220A600023F6
:1018200020F440700B60F061C00707D5FFF7CCFBD8
:101830000746F069C0F340000028DAD0F169686813
:1018400021F440710143F1611CB1B06920F0805076
:10185000B0612878C10705D5F26AA868920840EA05
:101860008202F2622978880705D5F16AE86821F4D6
:1018700040310143F1622978480705D5F16A2869AA
:1018800021F440210143F1622978880605D5F16AE7
:10189000E86921F010010143F1622968880305D548
:1018A0003168A86B21F48001014331602978480632
:1018B00005D5F16A286A21F020010143F1622978F7
:1018C000080705D5F16A686921F440110143F16206
:1018D0002978C80605D5F16AA86921F440010143B9
:1018E000F1622968880505D53168E86A21F40001AC
:1018F000014331602978080605D5B16A686A21F488
:10190000F8710143B1622968C80505D5B16AA86AB2
:1019100021F478510143B1622968C80405D5F16A00
:10192000286B21F480710143F1622968880405D590
:10193000F16A686B21F400710143F1620020BDE897
:10194000F681000004100240007000404004424252
:101950002DE9F84700266B4A0F230446884632E0FB
:10196000694DAC4214BF052504258D4045EA0E059E
:101970004CF82750C74365490D6800F0B3F8ED03F4
:1019800048BF40EA0C0CC1F800C04D6800F0AAF84E
:10199000AD0348BF40EA0C0CC1F804C08D6800F0EC
:1019A000A1F8ED0248BF40EA0C0CC1F808C0CD68B0
:1019B00007EA050CD8F80470BD0248BF40EA0C0CD9
:1019C000C1F80CC0761CD8F8001031FA06F000F00F
:1019D00087800127B74017EA0100F3D0D8F80450F8
:1019E000B100022D18BF122D12D1F50804EB850CA1
:1019F00001F01C05DCF820E0D8F810A003FA05F986
:101A00002EEA090E0AFA05F545EA0E05CCF8205033
:101A10004FEA460C4FF0030E256898F804900EFA32
:101A20000CFE6FEA0E0E09F003090EEA050509FA2D
:101A30000CF949EA05052560D8F80450012D18BFB6
:101A4000022D03D0112D18BF122D13D1A568D8F87F
:101A50000C900EEA050509FA0CF949EA0505A5609E
:101A6000656825EA0707D8F80450C5F30015B540A6
:101A70002F436760E7680EEA0705D8F8087007FA91
:101A80000CF73D43E560D8F80450EF009AD515688F
:101A9000DFF87CC045F00105156001F00C01176806
:101AA00007F00107009703FA01FE009FB7085CF8F2
:101AB000275025EA0E0EB4F1904F08BF00250ED036
:101AC000144DAC4208BF012509D0134DAC4208BFEC
:101AD000022504D0114DAC427FF442AF032544E708
:101AE000BDE8F18707EA050CD8F804507047006993
:101AF000084018BF0120C0B270470AB18161704729
:101B00008162704718100240001000480004014034
:101B1000080001400004004800080048000C00488C
:101B20004F4882B0016841F001010160026802F093
:101B3000010200920099426842F080524260002205
:101B4000406800F0805000900F2100986FF0010075
:101B500002B0FFF779BA38B586B000F04AF82468C9
:101B6000404DAC4220D1404C206840F480202060A1
:101B70001222216801F480210091C02100983B4885
:101B80000191029201210391032204210591049203
:101B900001A9FFF7DDFEA06840F40010A060A06876
:101BA00000F400100090009807B030BD38B586B042
:101BB00000F01FF824682E4DAC4218D12A48416825
:101BC00041F480514160416801F4805100910099D5
:101BD000026842F400320260E021006800F4003044
:101BE0000090022200F02EF8052100F032F807B034
:101BF00030BD044601A81421FFF7CABD38B586B030
:101C0000FFF7F7FF24681B4DAC4219D1164C206832
:101C100040F4003020600222216801F4003100917C
:101C20004FF4C05100F00EF80E2100F012F8A06839
:101C300040F40000A060A06800F40000009000984C
:101C400007B030BD00980191029200210391032258
:101C500070470591049201A94FF09040FFF778BEBC
:101C600018100240005400401410024000040048C4
:101C700000300140005C004000B500BF13009646F4
:101C80009446103928BFA0E80C50FAD85FEA417C8E
:101C900028BF0CC048BF40F8042BC90728BF20F854
:101CA000022B48BF00F8012B00BD000010B51448FE
:101CB000144A016841F4700101601068124940F053
:101CC00001001060536811480B40536000231468F2
:101CD00004401460116821F480211160506820F4E0
:101CE000FE005060D06A00090001D062116B084804
:101CF0000140116393604FF000600649086010BD19
:101D000088ED00E0001002400CC07FF8FFFFF6FEF7
:101D1000CCFC00FF08ED00E0000000000000000027
:101D2000010203040607080900000000000000008B
:101D300000000000000000000000000000000000A3
:101D40000000000000000000000000000000000093
:101D50000000000000000000000000000000000083
:101D60000000000000000000000000000000000073
:101D70000000000000000000000000000000000063
:101D800000000000000000000000000030B450F827
:101D9000041B79B10268436802440830DC0744BF81
:101DA000A9F10104E31852F8045B43F8045B091F2E
:101DB000F9D1ECE730BC704710B5074979441831C8
:101DC000064C7C44163404E00A68081D1144884718
:101DD0000146A142F8D110BD2C0000004C000000CB
:101DE0004EF68851CEF20001086840F47000086099
:101DF000BFF34F8FBFF36F8F4FF00070E1EE100A0B
:101E00007047000083F7FFFFA41100001C000020B2
:101E10000000000079FFFFFF1C00000070000000C0
:101E2000000000200000000000F00DF8002801D0A4
:101E3000FFF7C2FFAFF300800020AFF30080FFF791
:101E40003FF900F002F80120704700F001B80000EF
:101E50000746384600F002F8FBE7000080B5AFF314
:101E60000080024A11001820ABBEFBE726000200EA
:101E700064656661756C745461736B006469736347
:101E80006F76657279416E696D61740000000000C3
:101E9000AAAAAAAA00000000010000000000000099
:101EA0001000000000127A007047FEE7FEE7FEE730
:101EB000FEE7704780B500F005F8BDE80140FFF788
:101EC0005CBC00000248416802788A184260704792
:101ED0000C0000200148804701480047AD1C000865
:101EE000E51E0008AFF30080FFF77AFFFFF79CFFC5
:101EF000FFF7FEBFFFF7FEBFFFF7FEBFFFF7FEBF16
:101F0000FFF7FEBFFFF7FEBFFFF7FEBFFFF7FEBF05
:101F1000FFF7FEBFFFF7FEBFFFF7FEBFFFF7FEBFF5
:101F2000FFF7FEBFFFF7FEBFFFF7FEBFFFF7FEBFE5
:101F3000FFF7FEBFFFF7FEBFFFF7FEBFFFF7FEBFD5
:101F4000FFF7FEBFFFF7FEBFFFF7FEBFFFF7FEBFC5
:101F5000FFF7FEBFFFF7FEBFFFF7FEBFFFF7FEBFB5
:101F6000FFF7FEBFFFF7FEBFFFF7FEBFFFF7FEBFA5
:101F7000FFF7FEBFFFF7FEBFFFF7FEBFFFF7FEBF95
:101F8000FFF7FEBFFFF7FEBFFFF7FEBFFFF7FEBF85
:101F9000FFF7FEBFFFF7FEBFFFF7FEBFFFF7FEBF75
:101FA000FFF7FEBFFFF7FEBFFFF7FEBFFFF7FEBF65
:101FB000FFF7FEBFFFF7FEBFFFF7FEBFFFF7FEBF55
:101FC000FFF7FEBFFFF7FEBFFFF7FEBFFFF7FEBF45
:101FD000FFF7FEBFFFF7FEBFFFF7FEBFFFF7FEBF35
:101FE000FFF7FEBFFFF7FEBFFFF7FEBFFFF7FEBF25
:081FF000FFF7FEBFFFF7FEBF83
:0400000508001EE5EC
:00000001FF
